{
    "contractName": "ProxyFunctionsV2",
    "abi": [
        {
            "inputs": [
                {
                    "internalType": "address",
                    "name": "token_address",
                    "type": "address"
                },
                {
                    "internalType": "address",
                    "name": "uniswap_router",
                    "type": "address"
                },
                {
                    "internalType": "address",
                    "name": "uniswap_pair",
                    "type": "address"
                },
                {
                    "internalType": "address",
                    "name": "pair_token",
                    "type": "address"
                }
            ],
            "stateMutability": "nonpayable",
            "type": "constructor"
        },
        {
            "anonymous": false,
            "inputs": [
                {
                    "indexed": true,
                    "internalType": "bytes32",
                    "name": "role",
                    "type": "bytes32"
                },
                {
                    "indexed": true,
                    "internalType": "bytes32",
                    "name": "previousAdminRole",
                    "type": "bytes32"
                },
                {
                    "indexed": true,
                    "internalType": "bytes32",
                    "name": "newAdminRole",
                    "type": "bytes32"
                }
            ],
            "name": "RoleAdminChanged",
            "type": "event"
        },
        {
            "anonymous": false,
            "inputs": [
                {
                    "indexed": true,
                    "internalType": "bytes32",
                    "name": "role",
                    "type": "bytes32"
                },
                {
                    "indexed": true,
                    "internalType": "address",
                    "name": "account",
                    "type": "address"
                },
                {
                    "indexed": true,
                    "internalType": "address",
                    "name": "sender",
                    "type": "address"
                }
            ],
            "name": "RoleGranted",
            "type": "event"
        },
        {
            "anonymous": false,
            "inputs": [
                {
                    "indexed": true,
                    "internalType": "bytes32",
                    "name": "role",
                    "type": "bytes32"
                },
                {
                    "indexed": true,
                    "internalType": "address",
                    "name": "account",
                    "type": "address"
                },
                {
                    "indexed": true,
                    "internalType": "address",
                    "name": "sender",
                    "type": "address"
                }
            ],
            "name": "RoleRevoked",
            "type": "event"
        },
        {
            "anonymous": false,
            "inputs": [
                {
                    "indexed": false,
                    "internalType": "uint256",
                    "name": "",
                    "type": "uint256"
                },
                {
                    "indexed": false,
                    "internalType": "uint256",
                    "name": "",
                    "type": "uint256"
                }
            ],
            "name": "SwapAndLiquify",
            "type": "event"
        },
        {
            "inputs": [],
            "name": "DEFAULT_ADMIN_ROLE",
            "outputs": [
                {
                    "internalType": "bytes32",
                    "name": "",
                    "type": "bytes32"
                }
            ],
            "stateMutability": "view",
            "type": "function"
        },
        {
            "inputs": [],
            "name": "FEE_ROLE",
            "outputs": [
                {
                    "internalType": "bytes32",
                    "name": "",
                    "type": "bytes32"
                }
            ],
            "stateMutability": "view",
            "type": "function"
        },
        {
            "inputs": [],
            "name": "JANITOR_ROLE",
            "outputs": [
                {
                    "internalType": "bytes32",
                    "name": "",
                    "type": "bytes32"
                }
            ],
            "stateMutability": "view",
            "type": "function"
        },
        {
            "inputs": [],
            "name": "MARKETING_WITHDRAW_ROLE",
            "outputs": [
                {
                    "internalType": "bytes32",
                    "name": "",
                    "type": "bytes32"
                }
            ],
            "stateMutability": "view",
            "type": "function"
        },
        {
            "inputs": [],
            "name": "StartReleaseFee",
            "outputs": [],
            "stateMutability": "nonpayable",
            "type": "function"
        },
        {
            "inputs": [],
            "name": "TOKEN_ROLE",
            "outputs": [
                {
                    "internalType": "bytes32",
                    "name": "",
                    "type": "bytes32"
                }
            ],
            "stateMutability": "view",
            "type": "function"
        },
        {
            "inputs": [],
            "name": "disableReleaseFee",
            "outputs": [],
            "stateMutability": "nonpayable",
            "type": "function"
        },
        {
            "inputs": [
                {
                    "internalType": "uint256",
                    "name": "amount",
                    "type": "uint256"
                },
                {
                    "internalType": "address",
                    "name": "token",
                    "type": "address"
                }
            ],
            "name": "emergencyWithdraw",
            "outputs": [],
            "stateMutability": "nonpayable",
            "type": "function"
        },
        {
            "inputs": [],
            "name": "getPair",
            "outputs": [
                {
                    "internalType": "address",
                    "name": "",
                    "type": "address"
                }
            ],
            "stateMutability": "view",
            "type": "function"
        },
        {
            "inputs": [],
            "name": "getReleaseFee",
            "outputs": [
                {
                    "internalType": "uint256",
                    "name": "releaseTaxFee",
                    "type": "uint256"
                },
                {
                    "internalType": "uint256",
                    "name": "releaseOtherFee",
                    "type": "uint256"
                }
            ],
            "stateMutability": "view",
            "type": "function"
        },
        {
            "inputs": [
                {
                    "internalType": "bytes32",
                    "name": "role",
                    "type": "bytes32"
                }
            ],
            "name": "getRoleAdmin",
            "outputs": [
                {
                    "internalType": "bytes32",
                    "name": "",
                    "type": "bytes32"
                }
            ],
            "stateMutability": "view",
            "type": "function"
        },
        {
            "inputs": [
                {
                    "internalType": "bytes32",
                    "name": "role",
                    "type": "bytes32"
                },
                {
                    "internalType": "uint256",
                    "name": "index",
                    "type": "uint256"
                }
            ],
            "name": "getRoleMember",
            "outputs": [
                {
                    "internalType": "address",
                    "name": "",
                    "type": "address"
                }
            ],
            "stateMutability": "view",
            "type": "function"
        },
        {
            "inputs": [
                {
                    "internalType": "bytes32",
                    "name": "role",
                    "type": "bytes32"
                }
            ],
            "name": "getRoleMemberCount",
            "outputs": [
                {
                    "internalType": "uint256",
                    "name": "",
                    "type": "uint256"
                }
            ],
            "stateMutability": "view",
            "type": "function"
        },
        {
            "inputs": [
                {
                    "internalType": "bytes32",
                    "name": "role",
                    "type": "bytes32"
                },
                {
                    "internalType": "address",
                    "name": "account",
                    "type": "address"
                }
            ],
            "name": "grantRole",
            "outputs": [],
            "stateMutability": "nonpayable",
            "type": "function"
        },
        {
            "inputs": [
                {
                    "internalType": "bytes32",
                    "name": "role",
                    "type": "bytes32"
                },
                {
                    "internalType": "address",
                    "name": "account",
                    "type": "address"
                }
            ],
            "name": "hasRole",
            "outputs": [
                {
                    "internalType": "bool",
                    "name": "",
                    "type": "bool"
                }
            ],
            "stateMutability": "view",
            "type": "function"
        },
        {
            "inputs": [],
            "name": "liquidityfee",
            "outputs": [
                {
                    "internalType": "uint256",
                    "name": "",
                    "type": "uint256"
                }
            ],
            "stateMutability": "view",
            "type": "function"
        },
        {
            "inputs": [],
            "name": "marketingfee",
            "outputs": [
                {
                    "internalType": "uint256",
                    "name": "",
                    "type": "uint256"
                }
            ],
            "stateMutability": "view",
            "type": "function"
        },
        {
            "inputs": [],
            "name": "max_sell_pmille",
            "outputs": [
                {
                    "internalType": "uint256",
                    "name": "",
                    "type": "uint256"
                }
            ],
            "stateMutability": "view",
            "type": "function"
        },
        {
            "inputs": [],
            "name": "min_sell_pmille",
            "outputs": [
                {
                    "internalType": "uint256",
                    "name": "",
                    "type": "uint256"
                }
            ],
            "stateMutability": "view",
            "type": "function"
        },
        {
            "inputs": [
                {
                    "internalType": "uint256",
                    "name": "time_min",
                    "type": "uint256"
                },
                {
                    "internalType": "uint256",
                    "name": "max_pmille",
                    "type": "uint256"
                },
                {
                    "internalType": "uint256",
                    "name": "fee",
                    "type": "uint256"
                }
            ],
            "name": "modifyAntiWhale",
            "outputs": [],
            "stateMutability": "nonpayable",
            "type": "function"
        },
        {
            "inputs": [],
            "name": "normalfee",
            "outputs": [
                {
                    "internalType": "uint256",
                    "name": "",
                    "type": "uint256"
                }
            ],
            "stateMutability": "view",
            "type": "function"
        },
        {
            "inputs": [],
            "name": "otherFee",
            "outputs": [
                {
                    "internalType": "uint256",
                    "name": "",
                    "type": "uint256"
                }
            ],
            "stateMutability": "view",
            "type": "function"
        },
        {
            "inputs": [
                {
                    "internalType": "address",
                    "name": "sender",
                    "type": "address"
                },
                {
                    "internalType": "address",
                    "name": "reciever",
                    "type": "address"
                },
                {
                    "internalType": "uint256",
                    "name": "amount",
                    "type": "uint256"
                },
                {
                    "internalType": "bool",
                    "name": "takefee",
                    "type": "bool"
                }
            ],
            "name": "postTransfer",
            "outputs": [],
            "stateMutability": "nonpayable",
            "type": "function"
        },
        {
            "inputs": [
                {
                    "internalType": "address",
                    "name": "sender",
                    "type": "address"
                },
                {
                    "internalType": "address",
                    "name": "receiver",
                    "type": "address"
                },
                {
                    "internalType": "uint256",
                    "name": "amount",
                    "type": "uint256"
                },
                {
                    "internalType": "bool",
                    "name": "takefee",
                    "type": "bool"
                }
            ],
            "name": "preTransfer",
            "outputs": [
                {
                    "internalType": "uint256",
                    "name": "newTaxFee",
                    "type": "uint256"
                },
                {
                    "internalType": "uint256",
                    "name": "newOtherFee",
                    "type": "uint256"
                },
                {
                    "internalType": "bool",
                    "name": "_takFee",
                    "type": "bool"
                }
            ],
            "stateMutability": "nonpayable",
            "type": "function"
        },
        {
            "inputs": [],
            "name": "releaseFee",
            "outputs": [
                {
                    "internalType": "uint256",
                    "name": "",
                    "type": "uint256"
                }
            ],
            "stateMutability": "view",
            "type": "function"
        },
        {
            "inputs": [],
            "name": "releaseFeeEnabled",
            "outputs": [
                {
                    "internalType": "bool",
                    "name": "",
                    "type": "bool"
                }
            ],
            "stateMutability": "view",
            "type": "function"
        },
        {
            "inputs": [],
            "name": "releaseFeeReduction",
            "outputs": [
                {
                    "internalType": "uint256",
                    "name": "",
                    "type": "uint256"
                }
            ],
            "stateMutability": "view",
            "type": "function"
        },
        {
            "inputs": [],
            "name": "releaseFeeReductionTime",
            "outputs": [
                {
                    "internalType": "uint256",
                    "name": "",
                    "type": "uint256"
                }
            ],
            "stateMutability": "view",
            "type": "function"
        },
        {
            "inputs": [],
            "name": "releaseFeeStartTime",
            "outputs": [
                {
                    "internalType": "uint256",
                    "name": "",
                    "type": "uint256"
                }
            ],
            "stateMutability": "view",
            "type": "function"
        },
        {
            "inputs": [
                {
                    "internalType": "bytes32",
                    "name": "role",
                    "type": "bytes32"
                },
                {
                    "internalType": "address",
                    "name": "account",
                    "type": "address"
                }
            ],
            "name": "renounceRole",
            "outputs": [],
            "stateMutability": "nonpayable",
            "type": "function"
        },
        {
            "inputs": [
                {
                    "internalType": "bytes32",
                    "name": "role",
                    "type": "bytes32"
                },
                {
                    "internalType": "address",
                    "name": "account",
                    "type": "address"
                }
            ],
            "name": "revokeRole",
            "outputs": [],
            "stateMutability": "nonpayable",
            "type": "function"
        },
        {
            "inputs": [
                {
                    "internalType": "bytes4",
                    "name": "interfaceId",
                    "type": "bytes4"
                }
            ],
            "name": "supportsInterface",
            "outputs": [
                {
                    "internalType": "bool",
                    "name": "",
                    "type": "bool"
                }
            ],
            "stateMutability": "view",
            "type": "function"
        },
        {
            "inputs": [],
            "name": "taxFee",
            "outputs": [
                {
                    "internalType": "uint256",
                    "name": "",
                    "type": "uint256"
                }
            ],
            "stateMutability": "view",
            "type": "function"
        },
        {
            "inputs": [],
            "name": "uniswapV2Pair",
            "outputs": [
                {
                    "internalType": "address",
                    "name": "",
                    "type": "address"
                }
            ],
            "stateMutability": "view",
            "type": "function"
        },
        {
            "inputs": [],
            "name": "uniswapV2Router",
            "outputs": [
                {
                    "internalType": "contract IUniswapV2Router02",
                    "name": "",
                    "type": "address"
                }
            ],
            "stateMutability": "view",
            "type": "function"
        },
        {
            "inputs": [
                {
                    "internalType": "uint256",
                    "name": "tax",
                    "type": "uint256"
                },
                {
                    "internalType": "uint256",
                    "name": "marketing",
                    "type": "uint256"
                },
                {
                    "internalType": "uint256",
                    "name": "liquidity",
                    "type": "uint256"
                }
            ],
            "name": "updateFees",
            "outputs": [],
            "stateMutability": "nonpayable",
            "type": "function"
        },
        {
            "inputs": [
                {
                    "internalType": "uint256",
                    "name": "fee",
                    "type": "uint256"
                },
                {
                    "internalType": "uint256",
                    "name": "reduction",
                    "type": "uint256"
                },
                {
                    "internalType": "uint256",
                    "name": "reductionTime",
                    "type": "uint256"
                }
            ],
            "name": "updateReleaseFee",
            "outputs": [],
            "stateMutability": "nonpayable",
            "type": "function"
        },
        {
            "inputs": [],
            "name": "whalefee",
            "outputs": [
                {
                    "internalType": "uint256",
                    "name": "",
                    "type": "uint256"
                }
            ],
            "stateMutability": "view",
            "type": "function"
        },
        {
            "inputs": [
                {
                    "internalType": "address",
                    "name": "receiver",
                    "type": "address"
                }
            ],
            "name": "withdrawLiquidity",
            "outputs": [],
            "stateMutability": "nonpayable",
            "type": "function"
        },
        {
            "inputs": [
                {
                    "internalType": "address payable",
                    "name": "receiver",
                    "type": "address"
                },
                {
                    "internalType": "uint256",
                    "name": "amount",
                    "type": "uint256"
                }
            ],
            "name": "withdrawMarketing",
            "outputs": [],
            "stateMutability": "nonpayable",
            "type": "function"
        },
        {
            "inputs": [
                {
                    "internalType": "address payable",
                    "name": "receiver",
                    "type": "address"
                }
            ],
            "name": "withdrawMarketingAll",
            "outputs": [],
            "stateMutability": "nonpayable",
            "type": "function"
        },
        {
            "stateMutability": "payable",
            "type": "receive"
        }
    ],
    "bytecode": "6101406040526001600555600a600755600360085562000032600b54600a54620002d160201b62001a511790919060201c565b6009556004600a556003600b556200005d600954600854620002d160201b62001a511790919060201c565b600c556028600d819055600e55600f805460ff191690556000601055600560115562015180601255610e106013553480156200009857600080fd5b50604051620030ff380380620030ff833981016040819052620000bb916200047d565b620000c8600033620002e8565b620000f47fa1e0b4c85c53e6b23747a069c366a5e6970ffd51a2313aaef370b9f4bef4657433620002e8565b620001207f1cb0d6461572bd9b725739f1d8ea32d250b0dfcd75c68201355159719c012f8033620002e8565b6200014c7ff33fe78eb7c840e8bf68670029904b6f0da8e79346941c278a4e7676d473df1533620002e8565b620001787fa7197c38d9c4c7450c7f2cd20d0a17cbe7c344190d6c82a6b49a146e62439ae485620002e8565b6001600160601b0319606084811b821660805285811b821660a05282901b1660c052600754604080516318160ddd60e01b81529051859262000253926103e8926200023f92916001600160a01b038b16916318160ddd91600480820192602092909190829003018186803b158015620001f057600080fd5b505afa15801562000205573d6000803e3d6000fd5b505050506040513d601f19601f820116820180604052508101906200022b9190620004da565b6200032b60201b62001a5d1790919060201c565b6200033960201b62001a691790919060201c565b600681905550620002a16103e86200023f600554886001600160a01b03166318160ddd6040518163ffffffff1660e01b815260040160206040518083038186803b158015620001f057600080fd5b6004556001600160601b0319606091821b811660e05292901b90911661012081905261010052506200056a915050565b6000620002df8284620004f4565b90505b92915050565b620002ff82826200034760201b62001a751760201c565b60008281526001602090815260409091206200032691839062001a8362000357821b17901c565b505050565b6000620002df828462000532565b6000620002df82846200050f565b6200035382826200036e565b5050565b6000620002df836001600160a01b0384166200040e565b6000828152602081815260408083206001600160a01b038516845290915290205460ff1662000353576000828152602081815260408083206001600160a01b03851684529091529020805460ff19166001179055620003ca3390565b6001600160a01b0316816001600160a01b0316837f2f8788117e7eff1d82e926ec794901d17c78024a50270940304540a733656f0d60405160405180910390a45050565b60008181526001830160205260408120546200045757508154600181810184556000848152602080822090930184905584548482528286019093526040902091909155620002e2565b506000620002e2565b80516001600160a01b03811681146200047857600080fd5b919050565b600080600080608085870312156200049457600080fd5b6200049f8562000460565b9350620004af6020860162000460565b9250620004bf6040860162000460565b9150620004cf6060860162000460565b905092959194509250565b600060208284031215620004ed57600080fd5b5051919050565b600082198211156200050a576200050a62000554565b500190565b6000826200052d57634e487b7160e01b600052601260045260246000fd5b500490565b60008160001904831182151516156200054f576200054f62000554565b500290565b634e487b7160e01b600052601160045260246000fd5b60805160601c60a05160601c60c05160601c60e05160601c6101005160601c6101205160601c612aa06200065f6000396000818161123901526112e401526000818161042b015281816106cc0152610d9201526000818161029d01528181611ef701526121810152600081816109e301528181610bd1015281816115980152818161168f015281816117e50152818161189001528181611ea001528181612076015261213101526000818161093b01528181610fed015281816116ef01528181611dac01528181611e4c01528181611fb30152612109015260008181611d7d01528181611f8401526120470152612aa06000f3fe60806040526004361061024a5760003560e01c80638d0c0ce311610139578063aa94e751116100b6578063ca15c8731161007a578063ca15c8731461071b578063d0d40c0f1461073b578063d4acc8f714610751578063d547741f14610767578063e81f655d14610787578063f80a0a411461079c57600080fd5b8063aa94e75114610687578063b656312b146106a7578063c1f1b1b5146106bd578063c7e434db146106f0578063c81ab0e21461070557600080fd5b80639e3c6687116100fd5780639e3c668714610606578063a071dcf414610626578063a217fddf1461063c578063a730ebdf14610651578063a84ffb181461066757600080fd5b80638d0c0ce3146105625780639010d07c1461058c57806391d14854146105ac57806393ef4950146105cc5780639d67ac37146105e657600080fd5b806336568abe116101c75780636692dd571161018b5780636692dd5714610499578063729ca707146104cd57806374e342ed146104e35780638301057b14610520578063845e9de71461054257600080fd5b806336568abe146103f957806349bd5a5e146104195780634bd99e6b1461044d578063663b42211461046d57806366717e211461048357600080fd5b80632a0276f81161020e5780632a0276f81461034d5780632f2ff15d1461036f5780632f940c701461038f57806330dc15df146103af578063343ab216146103e357600080fd5b806301ffc9a7146102565780631694505e1461028b57806322429085146102d7578063248a9ca3146102f95780632490a9011461033757600080fd5b3661025157005b600080fd5b34801561026257600080fd5b50610276610271366004612743565b6107b2565b60405190151581526020015b60405180910390f35b34801561029757600080fd5b506102bf7f000000000000000000000000000000000000000000000000000000000000000081565b6040516001600160a01b039091168152602001610282565b3480156102e357600080fd5b506102f76102f2366004612786565b6107dd565b005b34801561030557600080fd5b506103296103143660046126d8565b60009081526020819052604090206001015490565b604051908152602001610282565b34801561034357600080fd5b50610329600e5481565b34801561035957600080fd5b50610329600080516020612a4b83398151915281565b34801561037b57600080fd5b506102f761038a3660046126f1565b6108a1565b34801561039b57600080fd5b506102f76103aa3660046126f1565b6108c8565b3480156103bb57600080fd5b506103297fa1e0b4c85c53e6b23747a069c366a5e6970ffd51a2313aaef370b9f4bef4657481565b3480156103ef57600080fd5b5061032960095481565b34801561040557600080fd5b506102f76104143660046126f1565b610b6f565b34801561042557600080fd5b506102bf7f000000000000000000000000000000000000000000000000000000000000000081565b34801561045957600080fd5b506102f761046836600461261f565b610b91565b34801561047957600080fd5b50610329600d5481565b34801561048f57600080fd5b50610329600c5481565b3480156104a557600080fd5b506103297f1cb0d6461572bd9b725739f1d8ea32d250b0dfcd75c68201355159719c012f8081565b3480156104d957600080fd5b50610329600b5481565b3480156104ef57600080fd5b506105036104fe366004612668565b610cdb565b604080519384526020840192909252151590820152606001610282565b34801561052c57600080fd5b50610329600080516020612a2b83398151915281565b34801561054e57600080fd5b506102f761055d366004612786565b610f5e565b34801561056e57600080fd5b50610577611098565b60408051928352602083019190915201610282565b34801561059857600080fd5b506102bf6105a7366004612721565b6111cd565b3480156105b857600080fd5b506102766105c73660046126f1565b6111ec565b3480156105d857600080fd5b50600f546102769060ff1681565b3480156105f257600080fd5b506102f761060136600461261f565b611215565b34801561061257600080fd5b506102f7610621366004612786565b611369565b34801561063257600080fd5b5061032960085481565b34801561064857600080fd5b50610329600081565b34801561065d57600080fd5b50610329600a5481565b34801561067357600080fd5b506102f761068236600461263c565b611508565b34801561069357600080fd5b506102f76106a2366004612668565b6116be565b3480156106b357600080fd5b5061032960105481565b3480156106c957600080fd5b507f00000000000000000000000000000000000000000000000000000000000000006102bf565b3480156106fc57600080fd5b506102f761198d565b34801561071157600080fd5b5061032960055481565b34801561072757600080fd5b506103296107363660046126d8565b611a0a565b34801561074757600080fd5b5061032960075481565b34801561075d57600080fd5b5061032960115481565b34801561077357600080fd5b506102f76107823660046126f1565b611a21565b34801561079357600080fd5b506102f7611a2b565b3480156107a857600080fd5b5061032960125481565b60006001600160e01b03198216635a05180f60e01b14806107d757506107d782611a98565b92915050565b600080516020612a4b8339815191526107f68133611acd565b601461080c836108068787611a51565b90611a51565b1061086e5760405162461bcd60e51b815260206004820152602760248201527f546865206e6f726d616c206665652063616e7420626520686967686572207468604482015266616e203230252160c81b60648201526084015b60405180910390fd5b6008849055600b839055600a8290556108878383611a51565b600981905560085461089891611a51565b600c5550505050565b6108ab8282611b31565b60008281526001602052604090206108c39082611a83565b505050565b7f1cb0d6461572bd9b725739f1d8ea32d250b0dfcd75c68201355159719c012f806108f38133611acd565b600083116109395760405162461bcd60e51b81526020600482015260136024820152720596f752063616e74207769746864726177203606c1b6044820152606401610865565b7f00000000000000000000000000000000000000000000000000000000000000006001600160a01b0316826001600160a01b031614156109e15760405162461bcd60e51b815260206004820152603860248201527f596f752063616e742077697468647261772074686520746f6b656e206d616e7560448201527f616c6c792066726f6d207468697320636f6e74726163742100000000000000006064820152608401610865565b7f00000000000000000000000000000000000000000000000000000000000000006001600160a01b0316826001600160a01b03161415610a2057600080fd5b6040516370a0823160e01b815230600482015282906001600160a01b038216906370a082319060240160206040518083038186803b158015610a6157600080fd5b505afa158015610a75573d6000803e3d6000fd5b505050506040513d601f19601f82011682018060405250810190610a99919061276d565b841015610ae85760405162461bcd60e51b815260206004820152601f60248201527f54686520636f6e74726163742062616c616e636520697320746f6f206c6f77006044820152606401610865565b60405163a9059cbb60e01b8152336004820152602481018590526001600160a01b0382169063a9059cbb90604401602060405180830381600087803b158015610b3057600080fd5b505af1158015610b44573d6000803e3d6000fd5b505050506040513d601f19601f82011682018060405250810190610b6891906126bb565b5050505050565b610b798282611b57565b60008281526001602052604090206108c39082611bd1565b7fa1e0b4c85c53e6b23747a069c366a5e6970ffd51a2313aaef370b9f4bef46574610bbc8133611acd565b6040516370a0823160e01b81523060048201527f00000000000000000000000000000000000000000000000000000000000000006001600160a01b03169063a9059cbb90849083906370a082319060240160206040518083038186803b158015610c2557600080fd5b505afa158015610c39573d6000803e3d6000fd5b505050506040513d601f19601f82011682018060405250810190610c5d919061276d565b6040516001600160e01b031960e085901b1681526001600160a01b0390921660048301526024820152604401602060405180830381600087803b158015610ca357600080fd5b505af1158015610cb7573d6000803e3d6000fd5b505050506040513d601f19601f820116820180604052508101906108c391906126bb565b60008080600080516020612a2b833981519152610cf88133611acd565b610d10600080516020612a2b833981519152336111ec565b610d6f5760405162461bcd60e51b815260206004820152602a60248201527f596f7520617265206e6f7420616c6c6f77656420746f2063616c6c20746869736044820152692066756e6374696f6e2160b01b6064820152608401610865565b6008549350600954925084610d905760085460095486935093509350610f53565b7f00000000000000000000000000000000000000000000000000000000000000006001600160a01b0316876001600160a01b03161415610f4f57610dd2611098565b600954600854929650909450610de89190611a51565b610df28585611a51565b11610e0257600f805460ff191690555b6013546001600160a01b038916600090815260036020526040902054610e2791611a51565b4210610e54576001600160a01b038816600090815260036020908152604080832042905560029091528120555b600d54610e618585611a51565b1015610f12576006546001600160a01b03891660009081526002602052604090205410610e9e57610e9460008788611be6565b9094509250610f12565b6001600160a01b038816600090815260026020526040902054600654610ec391611d4e565b861115610f12576001600160a01b038816600090815260026020526040812054600654610eef91611d4e565b90506000610efd8883611d4e565b9050610f0a82828a611be6565b909650945050505b6001600160a01b038816600090815260026020526040902054610f359087611a51565b6001600160a01b0389166000908152600260205260409020555b8491505b509450945094915050565b7f1cb0d6461572bd9b725739f1d8ea32d250b0dfcd75c68201355159719c012f80610f898133611acd565b60318210610fd05760405162461bcd60e51b81526020600482015260146024820152735468652066656520697320746f6f20686967682160601b6044820152606401610865565b610fdb84603c611a5d565b6013819055506110886103e8611082857f00000000000000000000000000000000000000000000000000000000000000006001600160a01b03166318160ddd6040518163ffffffff1660e01b815260040160206040518083038186803b15801561104457600080fd5b505afa158015611058573d6000803e3d6000fd5b505050506040513d601f19601f8201168201806040525081019061107c919061276d565b90611a5d565b90611a69565b60065550600791909155600d5550565b600f54600090819060ff1615806110af5750601054155b156110c05750506008546009549091565b60006110d760105442611d4e90919063ffffffff16565b905060006110f060125483611a6990919063ffffffff16565b9050600e5461110a82601154611a5d90919063ffffffff16565b1061111f576008546009549350935050509091565b600061114261113960115484611a5d90919063ffffffff16565b600e5490611d4e565b905061115b600954600854611a5190919063ffffffff16565b811161117257600854600954945094505050509091565b61119a61118c600954600854611a5190919063ffffffff16565b600854611082908490611a5d565b94506111c46111b6600954600854611a5190919063ffffffff16565b600954611082908490611a5d565b93505050509091565b60008281526001602052604081206111e59083611d5a565b9392505050565b6000918252602082815260408084206001600160a01b0393909316845291905290205460ff1690565b60006112218133611acd565b6040516370a0823160e01b81523060048201526000907f00000000000000000000000000000000000000000000000000000000000000006001600160a01b0316906370a082319060240160206040518083038186803b15801561128357600080fd5b505afa158015611297573d6000803e3d6000fd5b505050506040513d601f19601f820116820180604052508101906112bb919061276d565b60405163a9059cbb60e01b81526001600160a01b038581166004830152602482018390529192507f00000000000000000000000000000000000000000000000000000000000000009091169063a9059cbb906044015b602060405180830381600087803b15801561132b57600080fd5b505af115801561133f573d6000803e3d6000fd5b505050506040513d601f19601f8201168201806040525081019061136391906126bb565b50505050565b600080516020612a4b8339815191526113828133611acd565b601054156113de5760405162461bcd60e51b8152602060048201526024808201527f546869732063616e206f6e6c7920626520646f6e65206265666f7265206c61756044820152636e63682160e01b6064820152608401610865565b602d84111561142f5760405162461bcd60e51b815260206004820181905260248201527f546865206665652063616e7420626520686967686572207468616e20343525216044820152606401610865565b601154600e54116114955760405162461bcd60e51b815260206004820152602a60248201527f54686520726564756374696f6e2063616e7420626520686967686572207468616044820152696e20746865206665652160b01b6064820152608401610865565b6206978082106114f95760405162461bcd60e51b815260206004820152602960248201527f546865206d617820726564756374696f6e2074696d652070722073746570206960448201526873203520646179732160b81b6064820152608401610865565b50600e92909255601155601255565b7fa1e0b4c85c53e6b23747a069c366a5e6970ffd51a2313aaef370b9f4bef465746115338133611acd565b600082116115835760405162461bcd60e51b815260206004820152601d60248201527f596f75206e65656420746f2073656e64206d6f7265207468616e2030210000006044820152606401610865565b6040516370a0823160e01b81523060048201527f00000000000000000000000000000000000000000000000000000000000000006001600160a01b0316906370a082319060240160206040518083038186803b1580156115e257600080fd5b505afa1580156115f6573d6000803e3d6000fd5b505050506040513d601f19601f8201168201806040525081019061161a919061276d565b8211156116695760405162461bcd60e51b815260206004820152601f60248201527f54686520636f6e74726163742062616c616e636520697320746f6f206c6f77006044820152606401610865565b60405163a9059cbb60e01b81526001600160a01b038481166004830152602482018490527f0000000000000000000000000000000000000000000000000000000000000000169063a9059cbb90604401611311565b600080516020612a2b8339815191526116d78133611acd565b6040516370a0823160e01b81523060048201526000907f00000000000000000000000000000000000000000000000000000000000000006001600160a01b0316906370a082319060240160206040518083038186803b15801561173957600080fd5b505afa15801561174d573d6000803e3d6000fd5b505050506040513d601f19601f82011682018060405250810190611771919061276d565b90506004548110156117835750610b68565b60065481111561179257506006545b60006117b46002611082600954611082600a5487611a5d90919063ffffffff16565b905060006117c28383611d4e565b6040516370a0823160e01b81523060048201529091506000906001600160a01b037f000000000000000000000000000000000000000000000000000000000000000016906370a082319060240160206040518083038186803b15801561182757600080fd5b505afa15801561183b573d6000803e3d6000fd5b505050506040513d601f19601f8201168201806040525081019061185f919061276d565b905061186a82611d66565b6040516370a0823160e01b81523060048201526000906119109083906001600160a01b037f000000000000000000000000000000000000000000000000000000000000000016906370a082319060240160206040518083038186803b1580156118d257600080fd5b505afa1580156118e6573d6000803e3d6000fd5b505050506040513d601f19601f8201168201806040525081019061190a919061276d565b90611d4e565b9050600061193b61192d6002600954611a5d90919063ffffffff16565b600a54611082908590611a5d565b90506119478582611f6d565b60408051868152602081018390527f28fc98272ce761178794ad6768050fea1648e07f1e2ffe15afd3a290f8381486910160405180910390a15050505050505050505050565b600080516020612a4b8339815191526119a68133611acd565b601054156119f65760405162461bcd60e51b815260206004820152601960248201527f596f752063616e206f6e6c7920646f2074686973206f6e6365000000000000006044820152606401610865565b50600f805460ff1916600117905542601055565b60008181526001602052604081206107d7906121fe565b610b798282612208565b600080516020612a4b833981519152611a448133611acd565b50600f805460ff19169055565b60006111e582846128f9565b60006111e58284612933565b60006111e58284612911565b611a7f828261222e565b5050565b60006111e5836001600160a01b0384166122b2565b60006001600160e01b03198216637965db0b60e01b14806107d757506301ffc9a760e01b6001600160e01b03198316146107d7565b611ad782826111ec565b611a7f57611aef816001600160a01b03166014612301565b611afa836020612301565b604051602001611b0b9291906127e0565b60408051601f198184030181529082905262461bcd60e51b825261086591600401612855565b600082815260208190526040902060010154611b4d8133611acd565b6108c3838361222e565b6001600160a01b0381163314611bc75760405162461bcd60e51b815260206004820152602f60248201527f416363657373436f6e74726f6c3a2063616e206f6e6c792072656e6f756e636560448201526e103937b632b9903337b91039b2b63360891b6064820152608401610865565b611a7f828261249d565b60006111e5836001600160a01b038416612502565b60008060008411611c495760405162461bcd60e51b815260206004820152602760248201527f5768616c652066656520616d6f756e74206d75737420626520626967676572206044820152667468616e20302160c81b6064820152608401610865565b60008311611ca55760405162461bcd60e51b815260206004820152602360248201527f546f74616c20616d6f756e74206d75737420626520626967676572207468616e60448201526220302160e81b6064820152608401610865565b60008511611cb4576000611cda565b611cda6064611082611cd3600954600854611a5190919063ffffffff16565b8890611a5d565b9450611cf66064611082600d5487611a5d90919063ffffffff16565b93506000611d0d84611082606461107c8a8a611a51565b9050611d288161108260085484611a5d90919063ffffffff16565b9250611d438161108260095484611a5d90919063ffffffff16565b915050935093915050565b60006111e58284612952565b60006111e583836125f5565b60405163095ea7b360e01b81526001600160a01b037f000000000000000000000000000000000000000000000000000000000000000081166004830152602482018390527f0000000000000000000000000000000000000000000000000000000000000000169063095ea7b390604401602060405180830381600087803b158015611df057600080fd5b505af1158015611e04573d6000803e3d6000fd5b505050506040513d601f19601f82011682018060405250810190611e2891906126bb565b506040805160028082526060820183526000926020830190803683370190505090507f000000000000000000000000000000000000000000000000000000000000000081600081518110611e7e57611e7e6129d8565b60200260200101906001600160a01b031690816001600160a01b0316815250507f000000000000000000000000000000000000000000000000000000000000000081600181518110611ed257611ed26129d8565b6001600160a01b039283166020918202929092010152604051635c11d79560e01b81527f000000000000000000000000000000000000000000000000000000000000000090911690635c11d79590611f37908590600090869030904290600401612888565b600060405180830381600087803b158015611f5157600080fd5b505af1158015611f65573d6000803e3d6000fd5b505050505050565b60405163095ea7b360e01b81526001600160a01b037f000000000000000000000000000000000000000000000000000000000000000081166004830152602482018490527f0000000000000000000000000000000000000000000000000000000000000000169063095ea7b390604401602060405180830381600087803b158015611ff757600080fd5b505af115801561200b573d6000803e3d6000fd5b505050506040513d601f19601f8201168201806040525081019061202f91906126bb565b5060405163095ea7b360e01b81526001600160a01b037f000000000000000000000000000000000000000000000000000000000000000081166004830152602482018390527f0000000000000000000000000000000000000000000000000000000000000000169063095ea7b390604401602060405180830381600087803b1580156120ba57600080fd5b505af11580156120ce573d6000803e3d6000fd5b505050506040513d601f19601f820116820180604052508101906120f291906126bb565b5060405162e8e33760e81b81526001600160a01b037f0000000000000000000000000000000000000000000000000000000000000000811660048301527f000000000000000000000000000000000000000000000000000000000000000081166024830152604482018490526000606483018190526084830181905260a48301523060c48301524260e48301527f0000000000000000000000000000000000000000000000000000000000000000169063e8e337009061010401606060405180830381600087803b1580156121c657600080fd5b505af11580156121da573d6000803e3d6000fd5b505050506040513d601f19601f82011682018060405250810190610b6891906127b2565b60006107d7825490565b6000828152602081905260409020600101546122248133611acd565b6108c3838361249d565b61223882826111ec565b611a7f576000828152602081815260408083206001600160a01b03851684529091529020805460ff1916600117905561226e3390565b6001600160a01b0316816001600160a01b0316837f2f8788117e7eff1d82e926ec794901d17c78024a50270940304540a733656f0d60405160405180910390a45050565b60008181526001830160205260408120546122f9575081546001818101845560008481526020808220909301849055845484825282860190935260409020919091556107d7565b5060006107d7565b60606000612310836002612933565b61231b9060026128f9565b67ffffffffffffffff811115612333576123336129ee565b6040519080825280601f01601f19166020018201604052801561235d576020820181803683370190505b509050600360fc1b81600081518110612378576123786129d8565b60200101906001600160f81b031916908160001a905350600f60fb1b816001815181106123a7576123a76129d8565b60200101906001600160f81b031916908160001a90535060006123cb846002612933565b6123d69060016128f9565b90505b600181111561244e576f181899199a1a9b1b9c1cb0b131b232b360811b85600f166010811061240a5761240a6129d8565b1a60f81b828281518110612420576124206129d8565b60200101906001600160f81b031916908160001a90535060049490941c9361244781612995565b90506123d9565b5083156111e55760405162461bcd60e51b815260206004820181905260248201527f537472696e67733a20686578206c656e67746820696e73756666696369656e746044820152606401610865565b6124a782826111ec565b15611a7f576000828152602081815260408083206001600160a01b0385168085529252808320805460ff1916905551339285917ff6391f5c32d9c69d2a47ea670b442974b53935d1edc7fd64eb21e047a839171b9190a45050565b600081815260018301602052604081205480156125eb576000612526600183612952565b855490915060009061253a90600190612952565b905081811461259f57600086600001828154811061255a5761255a6129d8565b906000526020600020015490508087600001848154811061257d5761257d6129d8565b6000918252602080832090910192909255918252600188019052604090208390555b85548690806125b0576125b06129c2565b6001900381819060005260206000200160009055905585600101600086815260200190815260200160002060009055600193505050506107d7565b60009150506107d7565b600082600001828154811061260c5761260c6129d8565b9060005260206000200154905092915050565b60006020828403121561263157600080fd5b81356111e581612a04565b6000806040838503121561264f57600080fd5b823561265a81612a04565b946020939093013593505050565b6000806000806080858703121561267e57600080fd5b843561268981612a04565b9350602085013561269981612a04565b92506040850135915060608501356126b081612a1c565b939692955090935050565b6000602082840312156126cd57600080fd5b81516111e581612a1c565b6000602082840312156126ea57600080fd5b5035919050565b6000806040838503121561270457600080fd5b82359150602083013561271681612a04565b809150509250929050565b6000806040838503121561273457600080fd5b50508035926020909101359150565b60006020828403121561275557600080fd5b81356001600160e01b0319811681146111e557600080fd5b60006020828403121561277f57600080fd5b5051919050565b60008060006060848603121561279b57600080fd5b505081359360208301359350604090920135919050565b6000806000606084860312156127c757600080fd5b8351925060208401519150604084015190509250925092565b7f416363657373436f6e74726f6c3a206163636f756e7420000000000000000000815260008351612818816017850160208801612969565b7001034b99036b4b9b9b4b733903937b6329607d1b6017918401918201528351612849816028840160208801612969565b01602801949350505050565b6020815260008251806020840152612874816040850160208701612969565b601f01601f19169190910160400192915050565b600060a082018783526020878185015260a0604085015281875180845260c086019150828901935060005b818110156128d85784516001600160a01b0316835293830193918301916001016128b3565b50506001600160a01b03969096166060850152505050608001529392505050565b6000821982111561290c5761290c6129ac565b500190565b60008261292e57634e487b7160e01b600052601260045260246000fd5b500490565b600081600019048311821515161561294d5761294d6129ac565b500290565b600082821015612964576129646129ac565b500390565b60005b8381101561298457818101518382015260200161296c565b838111156113635750506000910152565b6000816129a4576129a46129ac565b506000190190565b634e487b7160e01b600052601160045260246000fd5b634e487b7160e01b600052603160045260246000fd5b634e487b7160e01b600052603260045260246000fd5b634e487b7160e01b600052604160045260246000fd5b6001600160a01b0381168114612a1957600080fd5b50565b8015158114612a1957600080fdfea7197c38d9c4c7450c7f2cd20d0a17cbe7c344190d6c82a6b49a146e62439ae4f33fe78eb7c840e8bf68670029904b6f0da8e79346941c278a4e7676d473df15a2646970667358221220469819aea702047e7de7bea378c2d28dece8692e3a7a10d4487d6ed0952ac87764736f6c63430008060033",
    "sourcePath": "c:/Users/Leona/Documents/GitHub/SlothiV2/contracts/proxyimplementation.sol",
    "compiler": {
        "name": "solc",
        "version": "0.8.6+commit.11564f7e"
    },
    "functionHashes": {
        "DEFAULT_ADMIN_ROLE()": "a217fddf",
        "FEE_ROLE()": "2a0276f8",
        "JANITOR_ROLE()": "6692dd57",
        "MARKETING_WITHDRAW_ROLE()": "30dc15df",
        "StartReleaseFee()": "c7e434db",
        "TOKEN_ROLE()": "8301057b",
        "disableReleaseFee()": "e81f655d",
        "emergencyWithdraw(uint256,address)": "2f940c70",
        "getPair()": "c1f1b1b5",
        "getReleaseFee()": "8d0c0ce3",
        "getRoleAdmin(bytes32)": "248a9ca3",
        "getRoleMember(bytes32,uint256)": "9010d07c",
        "getRoleMemberCount(bytes32)": "ca15c873",
        "grantRole(bytes32,address)": "2f2ff15d",
        "hasRole(bytes32,address)": "91d14854",
        "liquidityfee()": "a730ebdf",
        "marketingfee()": "729ca707",
        "max_sell_pmille()": "d0d40c0f",
        "min_sell_pmille()": "c81ab0e2",
        "modifyAntiWhale(uint256,uint256,uint256)": "845e9de7",
        "normalfee()": "66717e21",
        "otherFee()": "343ab216",
        "postTransfer(address,address,uint256,bool)": "aa94e751",
        "preTransfer(address,address,uint256,bool)": "74e342ed",
        "releaseFee()": "2490a901",
        "releaseFeeEnabled()": "93ef4950",
        "releaseFeeReduction()": "d4acc8f7",
        "releaseFeeReductionTime()": "f80a0a41",
        "releaseFeeStartTime()": "b656312b",
        "renounceRole(bytes32,address)": "36568abe",
        "revokeRole(bytes32,address)": "d547741f",
        "supportsInterface(bytes4)": "01ffc9a7",
        "taxFee()": "a071dcf4",
        "uniswapV2Pair()": "49bd5a5e",
        "uniswapV2Router()": "1694505e",
        "updateFees(uint256,uint256,uint256)": "22429085",
        "updateReleaseFee(uint256,uint256,uint256)": "9e3c6687",
        "whalefee()": "663b4221",
        "withdrawLiquidity(address)": "9d67ac37",
        "withdrawMarketing(address,uint256)": "a84ffb18",
        "withdrawMarketingAll(address)": "4bd99e6b"
    },
    "gasEstimates": {
        "creation": {
            "codeDepositCost": "2182400",
            "executionCost": "infinite",
            "totalCost": "infinite"
        },
        "external": {
            "DEFAULT_ADMIN_ROLE()": "284",
            "FEE_ROLE()": "infinite",
            "JANITOR_ROLE()": "240",
            "MARKETING_WITHDRAW_ROLE()": "307",
            "StartReleaseFee()": "infinite",
            "TOKEN_ROLE()": "infinite",
            "disableReleaseFee()": "infinite",
            "emergencyWithdraw(uint256,address)": "infinite",
            "getPair()": "infinite",
            "getReleaseFee()": "infinite",
            "getRoleAdmin(bytes32)": "2560",
            "getRoleMember(bytes32,uint256)": "infinite",
            "getRoleMemberCount(bytes32)": "infinite",
            "grantRole(bytes32,address)": "infinite",
            "hasRole(bytes32,address)": "2740",
            "liquidityfee()": "2406",
            "marketingfee()": "2362",
            "max_sell_pmille()": "2361",
            "min_sell_pmille()": "2428",
            "modifyAntiWhale(uint256,uint256,uint256)": "infinite",
            "normalfee()": "2429",
            "otherFee()": "2429",
            "postTransfer(address,address,uint256,bool)": "infinite",
            "preTransfer(address,address,uint256,bool)": "infinite",
            "releaseFee()": "2430",
            "releaseFeeEnabled()": "2411",
            "releaseFeeReduction()": "2383",
            "releaseFeeReductionTime()": "2449",
            "releaseFeeStartTime()": "2362",
            "renounceRole(bytes32,address)": "infinite",
            "revokeRole(bytes32,address)": "infinite",
            "supportsInterface(bytes4)": "infinite",
            "taxFee()": "2362",
            "uniswapV2Pair()": "infinite",
            "uniswapV2Router()": "infinite",
            "updateFees(uint256,uint256,uint256)": "infinite",
            "updateReleaseFee(uint256,uint256,uint256)": "infinite",
            "whalefee()": "2407",
            "withdrawLiquidity(address)": "infinite",
            "withdrawMarketing(address,uint256)": "infinite",
            "withdrawMarketingAll(address)": "infinite"
        },
        "internal": {
            "addLiquidity(uint256,uint256)": "infinite",
            "calculateWhaleFee(uint256,uint256,uint256)": "infinite",
            "swapTokensForToken(uint256)": "infinite"
        }
    }
}